:100000001EC038C037C036C035C034C033C032C05F
:1000100031C030C02FC02EC02DC02CC02BC02AC074
:1000200029C028C027C0039F250D9949411F0109F8
:10003000000000000000000000000000000011248B
:100040001FBECFE5D4E0DEBFCDBF10E0A0E6B0E03C
:10005000ECEBFAE002C005900D92A236B107D9F799
:1000600020E0A2E6B0E001C01D92A537B207E1F79B
:100070009FD322C5C5CF98E028E1362F382730FD21
:1000800002C0669503C062276695606886959150A8
:10009000A1F7862F0895EF92FF920F931F93CF93AE
:1000A000DF93EC017C0187E0E80EF11C8E0160E03B
:1000B000F80181918F01DFDF682F0E151F05C1F751
:1000C00081E09F81691301C080E0DF91CF911F9192
:1000D0000F91FF90EF900895EF92FF920F931F936F
:1000E000CF93DF93EC017C0188E0E80EF11C8E01D8
:1000F00060E0F80181918F01BEDF682F0E151F05AA
:10010000C1F781E09885691301C080E0DF91CF914C
:100110001F910F91FF90EF90089581E0A9C0CF93B8
:10012000DF931F92CDB7DEB782E0898380916200B2
:1001300081111CC019829E012F5F3F4F41E062E098
:1001400085E690E0A4D1813059F4698183E091E69D
:100150002DD28FE99FE00197F1F700C0000006C0A3
:100160008981823019F48FEF8093620089810F902A
:10017000DF91CF910895AF92BF92CF92DF92EF922D
:10018000FF920F931F93CF93DF93CDB7DEB72A97DC
:100190000FB6F894DEBF0FBECDBFB82E8B0181E045
:1001A000C0D088E0B89E70011124F701EB59FF4FD1
:1001B0007F0161E0CF01FAD061E084E4D2D081E038
:1001C00092D08823E1F381E0ACD061E0C701EED0AA
:1001D00061E08EEBC6D0CE0101967C016E019AE003
:1001E000C90ED11CAE2C9F2D81E09A87CDD0F7018E
:1001F00081937F019A85EC15FD05B1F78A2D6CDF9F
:10020000882371F06B2D8FE991E6D0D18FE99FE0C3
:100210000197F1F700C000001092620081E017C062
:100220006A8170E0762F6627882777FD8095982F62
:100230002981622B52D320E030E040E85DE3B1D366
:1002400019D3F801608371838283938380E02A96B7
:100250000FB6F894DEBF0FBECDBFDF91CF911F91D7
:100260000F91FF90EF90DF90CF90BF90AF900895E7
:1002700094B38095982394BB95B3982395BB80EA5B
:100280008A95F1F708952FB7F89494B3982B94BBFF
:1002900095B38095982395BB92E09A95F1F794B326
:1002A000982394BB95B3982395BB85E18A95F1F784
:1002B00000002FBF08952FB7F89494B3982B94BBE8
:1002C00095B38095982395BB94E19A95F1F794B3F3
:1002D000982394BB95B3982395BB83E08A95F1F757
:1002E00000002FBF08953FB7F89494B3982B94BBA8
:1002F00095B3282F2095922395BB92E09A95F1F71C
:1003000094B3922394BB95B3922395BB23E02A9593
:10031000F1F793B322E12A95F1F700003FBF89235B
:1003200008953FB7F89494B3982B94BB95B3282FB6
:100330002095922395BB90EA9A95F1F794B3922376
:1003400094BB95B3922395BB27E12A95F1F7000062
:1003500093B328E82A95F1F700C03FBF9095892311
:1003600008951F93CF93DF93C82F162FD8E0812FC6
:10037000C0FF02C088DF01C09EDFC695D150B9F72B
:10038000DF91CF911F9108951F93CF93DF93182F83
:10039000D8E0C0E0C695812FA6DF8111C068D1509A
:1003A000C9F78C2FDF91CF911F910895EF92FF92A3
:1003B0000F931F93CF93DF931F92CDB7DEB7182F04
:1003C000062F85E59983CDDFE12E9981F92E19E07D
:1003D000115031F0602FF70181917F01C2DFF8CF1A
:1003E0000F90DF91CF911F910F91FF90EF900895A3
:1003F000CF92DF92EF92FF920F931F93CF93DF93F1
:10040000EC01D62EF42E642F80EFABDF11E0E12C4F
:1004100001E08F2D68DFC82E8F2D65DFCC2029F0FD
:1004200081112BC08881812B06C09881882329F0F7
:10043000812F8095892388830FC00D1103C0912BD4
:1004400098830AC0D01628F4812F80958923888349
:1004500002C0912309F4E02E8881812319F08F2DA9
:1004600012DF02C08F2D27DF0F5F110F11F42196CD
:1004700011E0013471F68E2D01C08FEFDF91CF9125
:100480001F910F91FF90EF90DF90CF9008958F9282
:100490009F92AF92BF92CF92DF92EF92FF920F9313
:1004A0001F93CF93DF931F92CDB7DEB74C01C42EBD
:1004B0008901FC0120E0261741F0DF0198E01D9240
:1004C0009150E9F72F5F3896F6CFD82CE92CF4013C
:1004D000F12C60E088E0B82EAD2DBE2D8B2D019063
:1004E0000D928A95E1F78C2D69831BDF6981882342
:1004F00059F14C2D8D2D9E2D7BDF682FF3949401A7
:1005000088E0F89E200D311D1124611104C05401B2
:10051000D12CE12C11C0ED2DFE2DD22EE32EDCCFFF
:10052000C501B9DD81110BC0F80190819F5F9083F7
:10053000E394F8E0AF0EB11CEF10F2CF03C0DD245E
:10054000D394F6CF8D2D01C08FEF0F90DF91CF9117
:100550001F910F91FF90EF90DF90CF90BF90AF90E1
:100560009F908F90089584B38E6084BB85B385BBC4
:100570000895AB98AA9820E030E061E070E0AB010C
:10058000022E02C0440F551F0A94E2F74823592354
:10059000452B11F0A99A01C0A998AB9AAB982F5F8F
:1005A0003F4F2031310559F7AA9A089528E0629FFC
:1005B000B001112421E030E002C0220F331F6A9500
:1005C000E2F72095309582239323D3CFCF939C01DC
:1005D000462F843691051CF085E291E62AC0273F1C
:1005E0008FEF38071CF48DE091E623C037FF0DC074
:1005F00088279927821B930B6AE070E014D18A5DEB
:100600009F4FFC01C4912DEF10C0C9016AE070E05A
:100610000AD18A5D9F4FFC01C491C9016AE070E074
:1006200002D16A5D7F4FFB0124918C2F90E0642FF3
:10063000922BCF91BBCF8091600090916100089583
:1006400020E080339207E9F00097D9F090936100A1
:1006500080936000E0916300F0916400309731F086
:10066000DC011C968D919C911D970995E09160008D
:10067000F0916100389685919491009711F0FC01FA
:1006800009940895909364008093630080916000C2
:1006900090916100D5CFE0916000F091610080E021
:1006A000E033F80749F0309739F03A968591949104
:1006B000009711F0FC010994089567E070E080E074
:1006C00090E0089564E070E080E090E00895242FC9
:1006D00030E06830710581059105F4F057B32E5F65
:1006E0003F4F81E090E0BC0102C0660F771F2A9562
:1006F000E2F79B012095522357BB38B3322338BB16
:1007000027B3FC0102C0EE0FFF1F4A95E2F72E2B24
:1007100027BB88B38E2B22C06430710581059105FB
:10072000FCF467B381E090E0FC0102C0EE0FFF1F14
:100730004A95E2F7AF014095642367BB58B3542351
:1007400058BB47B32E5F3F4FBC0102C0660F771FF7
:100750002A95E2F7462B47BB88B3862B88BB0895C2
:1007600067B381E090E0FC0102C0EE0FFF1F4A95E5
:10077000E2F7AF014095642367BB58B3542358BBDD
:1007800047B32E5F3F4F022E01C0880F0A94EAF74D
:100790008095482347BB98B3982398BB0895B89891
:1007A000C098B998C198BA98C298BB98C398089550
:1007B000CF93DF9300D000D0CDB7DEB78FEF9FEFA0
:1007C000DC0189839A83AB83BC83CDDEA6DC10E099
:1007D000A6DC1817F0F4BE016F5F7F4F812FCBDCD2
:1007E000811114C0612F89819A81F0DE69817A813B
:1007F0008B819C81412F6BDF2FEF83EC99E021509F
:1008000080409040E1F700C0000001C0C8DF1F5FDA
:10081000DFCF2FEF83EC99E0215080409040E1F74B
:1008200000C00000D4CF97FB072E16F4009406D02A
:1008300077FD08D00BD007FC05D03EF4909581954C
:100840009F4F0895709561957F4F0895AA1BBB1B1C
:1008500051E107C0AA1FBB1FA617B70710F0A61BC0
:10086000B70B881F991F5A95A9F780959095BC01E1
:10087000CD01089504D06894B1118DC0089570D051
:1008800088F09F5790F0B92F9927B751A0F0D1F079
:10089000660F771F881F991F1AF0BA95C9F712C003
:1008A000B13081F077D0B1E0089574C0672F782F10
:1008B0008827B85F39F0B93FCCF38695779567956F
:1008C000B395D9F73EF490958095709561957F4FDB
:1008D0008F4F9F4F0895E89409C097FB3EF4909581
:1008E0008095709561957F4F8F4F9F4F9923A9F009
:1008F000F92F96E9BB279395F69587957795679598
:10090000B795F111F8CFFAF4BB0F11F460FF1BC0DB
:100910006F5F7F4F8F4F9F4F16C0882311F096E96E
:1009200011C0772321F09EE8872F762F05C066231C
:1009300071F096E8862F70E060E02AF09A95660FD5
:10094000771F881FDAF7880F9695879597F908958E
:1009500057FD9058440F551F59F05F3F71F0479570
:10096000880F97FB991F61F09F3F79F08795089555
:10097000121613061406551FF2CF4695F1DF08C074
:10098000161617061806991FF1CF86957105610591
:1009900008940895E894BB2766277727CB0197F939
:1009A00008950BD078C069D028F06ED018F0952348
:1009B00009F05AC05FC01124EECFCADFA0F3959FA3
:1009C000D1F3950F50E0551F629FF001729FBB2736
:1009D000F00DB11D639FAA27F00DB11DAA1F649FE2
:1009E0006627B00DA11D661F829F2227B00DA11D95
:1009F000621F739FB00DA11D621F839FA00D611D1B
:100A0000221F749F3327A00D611D231F849F600D3B
:100A1000211D822F762F6A2F11249F5750408AF074
:100A2000E1F088234AF0EE0FFF1FBB1F661F771F00
:100A3000881F91505040A9F79E3F510570F014C097
:100A4000AACF5F3FECF3983EDCF3869577956795E8
:100A5000B795F795E7959F5FC1F7FE2B880F911D1E
:100A60009695879597F9089597F99F6780E870E0C4
:100A700060E008959FEF80EC089500240A94161614
:100A8000170618060906089500240A94121613067C
:100A9000140605060895092E0394000C11F488230A
:100AA00052F0BB0F40F4BF2B11F460FF04C06F5F26
:0C0AB0007F4F8F4F9F4F0895F894FFCFA9
:020ABC00300008
:00000001FF
