:1000000019C028C027C026C025C024C023C022C0D4
:1000100021C020C01FC01EC01DC01CC01BC01AC0F4
:1000200019C018C017C0039F250D9949411F010928
:1000300003619F6111241FBECFE5D4E0DEBFCDBFB9
:1000400020E0A0E6B0E001C01D92A037B207E1F7C2
:10005000B2D228C4D5CF98E028E1362F382730FD1A
:1000600002C0669503C062276695606886959150C8
:10007000A1F7862F0895EF92FF920F931F93CF93CE
:10008000DF93EC017C0187E0E80EF11C8E0160E05B
:10009000F80181918F01DFDF682F0E151F05C1F771
:1000A00081E09F81691301C080E0DF91CF911F91B2
:1000B0000F91FF90EF900895EF92FF920F931F938F
:1000C000CF93DF93EC017C0188E0E80EF11C8E01F8
:1000D00060E0F80181918F01BEDF682F0E151F05CA
:1000E000C1F781E09885691301C080E0DF91CF916D
:1000F0001F910F91FF90EF900895AF92BF92CF9212
:10010000DF92EF92FF920F931F93CF93DF93CDB7C0
:10011000DEB72A970FB6F894DEBF0FBECDBFB82E5C
:100120007B018A01ADD06B2DC70118D16B2D84E402
:10013000C7D08B2D87D08823E1F38B2DA1D06B2DD9
:10014000C7010CD16B2D8EEBBBD0CE0101967C018B
:100150006E019AE0C90ED11CAE2C9F2D8B2D9A8773
:10016000C2D0F70181937F019A85EC15FD05B1F7A7
:100170008A2DA2DF811119C06A81862F90E0A0E04C
:10018000B0E06627782F892F9A2F2981622B99D288
:1001900020E030E040E85DE3FAD267D2F801608306
:1001A00071838283938380E001C081E02A960FB639
:1001B000F894DEBF0FBECDBFDF91CF911F910F919D
:1001C000FF90EF90DF90CF90BF90AF90089594B3E1
:1001D0008095982394BB95B3982395BB80EA8A9524
:1001E000F1F708952FB7F89494B3982B94BB95B377
:1001F0008095982395BB92E09A95F1F794B3982354
:1002000094BB95B3982395BB85E18A95F1F70000DF
:100210002FBF08952FB7F89494B3982B94BB95B340
:100220008095982395BB94E19A95F1F794B3982320
:1002300094BB95B3982395BB83E08A95F1F70000B2
:100240002FBF08953FB7F89494B3982B94BB95B300
:10025000282F2095922395BB92E09A95F1F794B3BD
:10026000922394BB95B3922395BB23E02A95F1F793
:1002700093B322E12A95F1F700003FBF8923089547
:100280003FB7F89494B3982B94BB95B3282F20953F
:10029000922395BB90EA9A95F1F794B3922394BB7D
:1002A00095B3922395BB27E12A95F1F7000093B30C
:1002B00028E82A95F1F700C03FBF9095892308955B
:1002C0001F93CF93DF93C82F162FD8E0812FC0FF45
:1002D00002C088DF01C09EDFC695D150B9F7DF911B
:1002E000CF911F9108951F93CF93DF93182FD8E0DC
:1002F000C0E0C695812FA6DF8111C068D150C9F733
:100300008C2FDF91CF911F910895682F8CECD8CF5F
:10031000CF92DF92FF920F931F93CF93DF931F92A1
:10032000CDB7DEB7182FF62E83E39983C9DFC12E30
:100330009981D92E8601085F1F4F8F2DD4DFF601DA
:1003400081936F01E017F107C1F70F90DF91CF9113
:100350001F910F91FF90DF90CF900895EF92FF9241
:100360000F931F93CF93DF931F92CDB7DEB7182F54
:10037000062F85E59983A4DFE12E9981F92E19E0F6
:10038000115031F0602FF70181917F0199DFF8CF93
:100390000F90DF91CF911F910F91FF90EF900895F3
:1003A000CF92DF92EF92FF920F931F93CF93DF9341
:1003B000EC01D62EF42E642F80EF82DF11E0E12CC9
:1003C00001E08F2D3FDFC82E8F2D3CDFCC2029F0A0
:1003D00081112BC08881812B06C09881882329F048
:1003E000812F8095892388830FC00D1103C0912B25
:1003F00098830AC0D01628F4812F8095892388839A
:1004000002C0912309F4E02E8881812319F08F2DF9
:10041000E9DE02C08F2DFEDE0F5F110F11F4219671
:1004200011E0013471F68E2D01C08FEFDF91CF9175
:100430001F910F91FF90EF90DF90CF9008958F92D2
:100440009F92AF92BF92CF92DF92EF92FF920F9363
:100450001F93CF93DF931F92CDB7DEB74C01C42E0D
:100460008901FC0120E0261741F0DF0198E01D9290
:100470009150E9F72F5F3896F6CFD82CE92CF4018C
:10048000F12C60E088E0B82EAD2DBE2D8B2D0190B3
:100490000D928A95E1F78C2D6983F2DE69818823BC
:1004A00059F14C2D8D2D9E2D7BDF682FF3949401F7
:1004B00088E0F89E200D311D1124611104C0540103
:1004C000D12CE12C11C0ED2DFE2DD22EE32EDCCF50
:1004D000C501D1DD81110BC0F80190819F5F908330
:1004E000E394F8E0AF0EB11CEF10F2CF03C0DD24AF
:1004F000D394F6CF8D2D01C08FEF0F90DF91CF9168
:100500001F910F91FF90EF90DF90CF90BF90AF9031
:100510009F908F90089584B38E6084BB85B385BB14
:100520000895AB98AA9820E030E061E070E0AB015C
:10053000022E02C0440F551F0A94E2F748235923A4
:10054000452B11F0A99A01C0A998AB9AAB982F5FDF
:100550003F4F2031310559F7AA9A089528E0629F4C
:10056000B001112421E030E002C0220F331F6A9550
:10057000E2F72095309582239323D3CF282F462F5F
:100580006AE067D0E82FF0E0EA5DFF4F3491822FF8
:1005900060D0E92FF0E0EA5DFF4FE4918E2F90E00C
:1005A000642F932BDBCFFC01EE0FFF1FE05DFF4FAD
:1005B000849190E0D3CFCF93DF9300D000D01F92EF
:1005C000CDB7DEB719821A821B821C821D82A3DF7F
:1005D00081E0FDDDE12CE11013C01D829E012B5F47
:1005E0003F4F41E062E080E690E029DF9D8192305C
:1005F00049F491E0813009F490E0E92EE19402C0E1
:10060000EE24EA9400E610E0F12CAE014F5F5F4F5C
:10061000B80181E072DD6F2D813039F08981AEDF64
:1006200026EA2A95F1F700C004C080E090E0BBDF25
:10063000E12CF394085F1F4F82E0F812E6CF9FE9A8
:1006400026E881E0915020408040E1F700C00000A2
:10065000C2CF991B79E004C0991F961708F0961B2A
:10066000881F7A95C9F78095089570D088F09F57B4
:1006700090F0B92F9927B751A0F0D1F0660F771FEE
:10068000881F991F1AF0BA95C9F712C0B13081F0CE
:1006900077D0B1E0089574C0672F782F8827B85FAE
:1006A00039F0B93FCCF3869577956795B395D9F72F
:1006B0003EF490958095709561957F4F8F4F9F4F39
:1006C0000895E89409C097FB3EF490958095709545
:1006D00061957F4F8F4F9F4F9923A9F0F92F96E98E
:1006E000BB279395F695879577956795B795F11103
:1006F000F8CFFAF4BB0F11F460FF1BC06F5F7F4FA0
:100700008F4F9F4F16C0882311F096E911C07723B1
:1007100021F09EE8872F762F05C0662371F096E8BA
:10072000862F70E060E02AF09A95660F771F881F89
:10073000DAF7880F9695879597F9089557FD9058A1
:10074000440F551F59F05F3F71F04795880F97FB95
:10075000991F61F09F3F79F087950895121613064F
:100760001406551FF2CF4695F1DF08C0161617067E
:100770001806991FF1CF86957105610508940895B3
:10078000E894BB2766277727CB0197F908950BD00C
:1007900078C069D028F06ED018F0952309F05AC0BF
:1007A0005FC01124EECFCADFA0F3959FD1F3950F60
:1007B00050E0551F629FF001729FBB27F00DB11DE5
:1007C000639FAA27F00DB11DAA1F649F6627B00D75
:1007D000A11D661F829F2227B00DA11D621F739F5E
:1007E000B00DA11D621F839FA00D611D221F749F6C
:1007F0003327A00D611D231F849F600D211D822FB3
:10080000762F6A2F11249F5750408AF0E1F08823F9
:100810004AF0EE0FFF1FBB1F661F771F881F915006
:100820005040A9F79E3F510570F014C0AACF5F3F1A
:10083000ECF3983EDCF3869577956795B795F79539
:10084000E7959F5FC1F7FE2B880F911D96958795C1
:1008500097F9089597F99F6780E870E060E0089540
:100860009FEF80EC089500240A94161617061806C8
:100870000906089500240A941216130614060506A4
:100880000895092E0394000C11F4882352F0BB0F35
:1008900040F4BF2B11F460FF04C06F5F7F4F8F4F98
:0808A0009F4F0895F894FFCF6B
:00000001FF
